S01E000052544F532D4F4C45442D58706C61696E65642D50726F2E73726563AD
S214400000802D4020411840003F1840003F184000D7
S2144000103F1840003F1840003F18400000000000D6
S214400020000000000000000000000000311B4000FF
S2144000303F18400000000000551B4000BD1B40001C
S2144000403F1840003F184000F92240000D22400073
S2144000503F1840003F1840003F1840003F184000FF
S2144000603F184000000000006D1240008112400022
S214400070951240003F1840003F1840003F1840008F
S214400080A9124000BD1240003F1840003F184000F3
S2144000903F1840003F1840003F184000E123400012
S2144000A0E1214000B12140003F1840003F18400089
S2144000B03F1840003F1840003F1840003F1840009F
S2144000C03F1840003F1840003F1840003F1840008F
S2144000D0000000003F184000000000003F184000AD
S2144000E03F1840003F1840003F1840003F1840006F
S2144000F03F1840003F1840003F1840003F1840005F
S2144001003F1840003F1840003F1840003F1840004E
S2144001103F18400000000000000000000000000003
S2144001203F1840003F1840003F1840003F1840002E
S2144001303F184000000000003F1840003F184000B5
S21440014010B5054C237833B9044B13B10448AFF3CC
S21440015000800123237010BDD0094020000000001D
S214400160549240000C4B43B10C480D4910B5AFF3C8
S21440017000800C48036823B910BD0A48036833B9A9
S2144001807047094B002BF7D0BDE810401847064B88
S214400190002BF5D0184700BF0000000054924000E6
S2144001A0D4094020549240000000000021B9436822
S2144001B023F0010343607047436843F00103436004
S2144001C070470162704730B485688468A54203D0A2
S2144001D085688468AC42FBD161B1C4F3015000EB42
S2144001E08005C4F3034000EB450014F4800F18BFAD
S2144001F00C30086042B1C4F3023101EB8101C4F314
S214400200032000EB4101116043B1C4F3021202EB3C
S214400210820204F00F0404EB42041C6030BC7047BA
S214400220F0B4446814F0010F05D00C2903D90C39FA
S2144002304FF4800700E000271C4CA4FB0356F6084A
S21440024006EB8605A3EB450343EA0613A4FB0265CB
S214400250ED0843EA053305EB8505A2EB450543EA81
S21440026005233B43A4FB0142D20843EA025302EB78
S2144002708202A1EB420143EA0141836913F0040F75
S214400280FBD0036843F001030360836913F0010F5A
S214400290FBD00123C3618160036823F00103036040
S2144002A0C06A00F00100F0BC704700BFCDCCCCCC9B
S2144002B0F0B5059C069D079F0E46B1B1416811F00A
S2144002C0010F05D00C2A03D90C3A4FF4800600E003
S2144002D000261949A1FB02E1C90801EB810EA2EBF9
S2144002E04E02120442EA015216435BB1124BA3FB84
S2144002F00423DB0803EB8302A4EB4204240244EA13
S2144003000334264355B10C4BA3FB0723DB0803EB12
S2144003108302A7EB420747EA03131E430269074BD3
S2144003201340036106610269054B13430361C06ACB
S21440033000F00400F0BD00BFCDCCCCCC7F7F7FFF6B
S21440034080808000F0B4049EC568C468A54203D08F
S214400350C568C468AC42FBD199B1C4F3033000EB26
S2144003608000C4F3032707EB4007C4F3021000EBFA
S214400370800504F00F0000EB4500642505FB007087
S214400380086042B1C4F3005081000844C4F30341FE
S21440039001EB4001116043B1C4F3017202EB8202EB
S2144003A0C4F3036101EB42021A6016B1C4F342542F
S2144003B03460F0BC7047000070B42A4DA5FB03467D
S2144003C0F608039C640544EA067406EB8606A3EB2F
S2144003D0460344EA0363A5FB0264E40843EA045385
S2144003E004EB8404A2EB440243EA02421E4BA3FB06
S2144003F001439B0942EA03121C4BA3FB01435B09E2
S214400400A5FB0364E40804EB8404A3EB44031A430B
S214400410A5FB0143DB0803EB8304A1EB440142EA5E
S2144004200122A5FB0315ED0805EB8505A3EB450565
S21440043042EA0532836913F0040FFBD0036843F0A9
S21440044002030360836913F0010FFBD00123C361ED
S214400450C260036823F002030360C06A00F0020033
S21440046070BC7047CDCCCCCCD34D62101F85EB51C1
S21440047030B4029D0C4651B1124CA4FB0214E40861
S21440048004EB8401A2EB4102120442EA04545BB13D
S2144004900C4AA2FB0532D20802EB8203A5EB4303CB
S2144004A01B0643EA02731C434269074B13404361F1
S2144004B044614269054B13434361C06A00F008003B
S2144004C030BC7047CDCCCCCCFFFF7F7F0000808017
S2144004D080697047C1617047034B1B6843F48023B3
S2144004E01943016000207047EC09402041B9094A91
S2144004F0136823F0807313600268134303607047E9
S214400500044A136843F08073136002681343036021
S214400510704700BFEC0940200268034B1B68194334
S21440052011430160704700BFEC094020036823EA8E
S2144005300101024B1B68194301607047EC094020DB
S214400540826883689A4203D0826883689342FBD16C
S21440055018467047C068704770B506460D46046832
S21440056004F480344FF4803109480A4B98472DB93B
S2144005704FF0FF33736024B9002070BD013D7560B5
S214400580F9E74FF480310248034B9847F4E700BF41
S21440059030180E402D0540001905400008B5074BA1
S2144005A0984203D0064B984204D008BD1520054B10
S2144005B0984708BD2A20034B9847F6E7008000403E
S2144005C000800540F1134000436823F470234360E5
S2144005D04368090401F4702119434160704730B400
S2144005E043F69924056915F0020F03D1013CF9D171
S2144005F001200CE0446814F0020F06D0120402F406
S214400600702211430BB141F08071C160002030BCB4
S214400610704732B900EB8100036B23F0010303639C
S214400620704700EB8100036B43F0010303637047A0
S21440063032B900EB8100036B23F00203036370477B
S21440064000EB8100036B43F0020303637047042A08
S21440065003D06AB1082A16D0704700EB8100036BBE
S21440066023F008030363036B43F0040303637047FC
S21440067000EB8100036B23F008030363036B23F056
S21440068004030363704700EB8100036B43F00803E9
S2144006900363E1E700EB81010B6B23F0F0030B6390
S2144006A00B6B1A430A637047431E1944B1FBF0F0C4
S2144006B0431EFE2B94BF00B24FF0FF3070477AB116
S2144006C010B4144600EB81010B6B23F47F430B639D
S2144006D00A6B42EA04220A6300205DF8044B704726
S2144006E04FF0FF30704710B489014318022444503D
S2144006F04FF0FF319962196A5A605DF8044B7047B3
S214400700890105234350704700EB8111CA61704749
S21440071000EB81114A62704700EB8111086A70470E
S214400720F0B486B002240194082402942024039452
S214400730802404940A9CE40B0594B0EB510F14D823
S2144007404C0CA04217D2012501AF57F82540B1FB0B
S214400750F4F4260C84420AD386420DD90135052D81
S214400760F3D1002006B0F0BC70470020FAE7002026
S214400770F8E70120F6E700252AB106A901EB850136
S21440078051F8141C1160002BF3D01D600120E9E7DE
S214400790014B1860704700BFF0094020024B1B68B1
S2144007A003EBC01042547047F0094020024B1B68D0
S2144007B003EBC010405C7047F00940202DE9F0473D
S2144007C08418802C02DDC0F18004E2B222B3CD084A
S2144007D0A1EBC501012606FA01F1CEB2012B1DD0D0
S2144007E0002B35D0022B17D10138C7B2D419E4B24A
S2144007F0DFF890A04FF00009DFF88C8021462846AD
S214400800D04786EA00024B46D2B221462846C04729
S214400810013CE4B2BC42F1D1BDE8F0870138C7B232
S214400820D419E4B2DFF85CA04FF00009DFF8588036
S21440083021462846D04746EA00024B46D2B22146D9
S2144008402846C047013CE4B2BC42F1D1BDE8F0873F
S2144008500138C7B2D419E4B2DFF82880CE43DFF8B7
S214400860289021462846C04706EA00020023D2B216
S21440087021462846C847013CE4B2BC42F1D1BDE817
S214400880F08700BFBD0A4000B90940002DE9F84393
S2144008909DF820708BB11C46904606464D1EEDB224
S2144008A02C44E4B2DFF818903B4642462146304698
S2144008B0C847013CE4B2AC42F6D1BDE8F88300BF7D
S2144008C0BD0740002DE9F04F83B004468846914668
S2144008D09B465B7A9BF8082000210091494640469B
S2144008E0214DA8479BF8003013B103B0BDE8F08F08
S2144008F09BF80820D30812F0070F18BF01339BF867
S21440090009A09BF80A70E71B17FB0AF717FB03F7CB
S214400910DBF8043013FA87F71FE06400E4B20135D1
S214400920EBB29E4210D9EBB208EB0300C0B213F014
S214400930070F08BF17F8014B14F0800FEDD00122C7
S21440094049460A4B9847E8E709F101095FFA89F9F1
S2144009500AF1FF3A1AF0FF0AC7D09BF80860002E4B
S214400960F2D000252C46DEE78D084000590A4000AC
S2144009702DE9F843044690461D4689460D4F0E46DF
S21440098008E06A7A013242445FFA82F8B14614F8C7
S214400990013F6BB120780A28F3D00D28F7D02B46BC
S2144009A042464946B8472B7A99445FFA89F9EEE7BA
S2144009B0BDE8F883C508400070B504460D461646A7
S2144009C01BB90D4B9847B04215D0324629462046B3
S2144009D00A4B984704F00F0040F0B000084CA04780
S2144009E0C5F3021040F01000A04705F00F00A047E6
S2144009F03046044B984770BDAD0740009D07400009
S214400A00C90A4000E90C40002DE9F0410D480E4B64
S214400A1098470E4B984740200D4B984700254FF07F
S214400A2001082F460B4E002443463A46E1B228467C
S214400A30B0470134802CF7D10135EDB2042DF2D108
S214400A40BDE8F081F409402091074000090B4000C2
S214400A50C90A4000B9094000C3092AD11F2928D82D
S214400A602DE9F04114460546CE08A1EBC601012209
S214400A7002FA01F75FFA87F8014630460D4B984771
S214400A800246012C09D064B1022C0ED00023294620
S214400A903046094CA047BDE8F08148EA0002D2B291
S214400AA0F4E720EA0702D2B2F0E788EA0002D2B2C0
S214400AB0ECE77047AD074000B909400008B5014B68
S214400AC0984708BDAD07400038B505460822094B93
S214400AD05A63094C01212046084B984701231A4681
S214400AE029462046064CA0474FF4FD70054B9847D4
S214400AF038BD00BF00100E4000800040C9054000D1
S214400B00DF054000010040202DE9F843664D4FF4D4
S214400B1000362E61C5F8A060644B08271F61C3F8F5
S214400B20A0706E66C5F890606E656E62C5F88060AF
S214400B302A6F22F400322A676A6F22F400326A670C
S214400B405F66C3F890705F655F62C3F880701A6F27
S214400B5022F008021A675A6F22F008025A671F608E
S214400B602E601F632E63DFF87C8100234FF48002E3
S214400B704FF0805140464E4CA04700234FF40012A1
S214400B804FF080514046A04700234FF000724FF090
S214400B9080514046A04700234FF480024FF08051DA
S214400BA04046A04700234FF400124FF08051404685
S214400BB0A04700234FF000724FF080514046A047B8
S214400BC03C4C4FF00209C4F800904FF08008C4F83F
S214400BD00080636843F0010363603A460121204683
S214400BE0354B9847002201212046344B9847002237
S214400BF001212046324B9847636823F00203636026
S214400C000022012120462F4B9847636823F080033B
S214400C106360636843F0100363602B492B482C4B9A
S214400C209847C2B2012120462A4B984720462A4B75
S214400C309847012323606E6340F6B830274CA047A0
S214400C402E6340F6B830A0472E63A820244CA04719
S214400C501F20A047D320A0470020A0474020A04701
S214400C60A120A047C820A047DA20A0474846A04772
S214400C708120A0478F20A047A420A047A620A047B9
S214400C80D520A0474046A0478D20A0471420A04727
S214400C90DB20A0474020A047D920A047F120A0470E
S214400CA0AF20A047BDE8F88300120E4000100E406B
S214400CB0D1104000008000404F0640001306400020
S214400CC0310640009506400080D1F00880841E0022
S214400CD0A9064000BF0640009D0540000100402098
S214400CE0C90A400000140E4038B505460822094B94
S214400CF01A63094C01212046084B984701231A469F
S214400D0029462046064CA0474FF4FD70054B9847B1
S214400D1038BD00BF00100E4000800040C9054000AE
S214400D20DF0540000100402010B51048104B9847A2
S214400D303E2100200F4B98470F4CA0470028FCD080
S214400D400E4B98470E4A0F4B9A620F4CA04700280E
S214400D50FCD002200D4B984700200D4B98470D4B7A
S214400D6098470248024B984710BD00BF00A3E111C8
S214400D70151A40006D134000C1134000D1134000C7
S214400D80013F182000060E40E1134000D1124000FB
S214400D9009134000091940002DE9F04180B90C467E
S214400DA09046002A0FDD8F18084E094D30682146C0
S214400DB02B6898470134BC42F8D14046BDE8F081E4
S214400DC04FF0FF38F9E78046F7E700BF440D402074
S214400DD03C0D40200138022815D82DE9F0410E463A
S214400DE014469AB10D46DFF838800C4FD8F800000C
S214400DF015F8011B3B68984700280ADBA81B013CF6
S214400E00F4D1BDE8F0814FF0FF3070471046BDE8A2
S214400E10F0814FF0FF30BDE8F08100BF400D40202C
S214400E20440D4020F8B54FF400425C4B5A60BFF387
S214400E304F8FBFF36F8F5A4B0022C3F850225A6928
S214400E4042F400325A61BFF34F8FBFF36F8FD3F82F
S214400E508070C7F34E3607F007000430C7F3C90763
S214400E60B7FA87FE0EF01F0EBFF34F8F4FF0FF34DA
S214400E7004FA00FC06FA00F004FA0EF407FA0EFE36
S214400E801D463A46734640EA0301C5F86012013AE9
S214400E902344B2F1FF3FF6D1013E6044B6F1FF3F36
S214400EA0EFD1BFF34F8F3E4B5A6942F480325A61BE
S214400EB0BFF34F8FBFF36F8F3A4A3B495160A1F55E
S214400EC080715160BFF34F8FBFF36F8FD3F890227E
S214400ED022F00102C3F89022D3F8942222F00102B5
S214400EE0C3F89422BFF34F8FBFF36F8F0A202F4C67
S214400EF0A0470B20A0470C20A0471020A047112059
S214400F00A0472B4B4FF480721A61C3F8A0201A6397
S214400F10A3F580634FF400625A61C3F8A0205A6676
S214400F20C3F890205A651A62C3F88420196F21F4DA
S214400F3000611967596F21F400615967C3F8C020F2
S214400F40C3F8D420C3F8B0204FF400121A66C3F892
S214400F5090205A655A62C3F88020196F21F4001118
S214400F601967596F21F4001159675A60114AD2F82F
S214400F70143143F01003C2F814310F4B10221A6696
S214400F80C3F890205A655A62C3F88020196F1143FF
S214400F901967596F114359675A60F8BD50180E408B
S214400FA000ED00E0000C0E400C08005AF113400023
S214400FB000120E400080084000100E40C0F884101A
S214400FC053004FF40042B2FBF3F2013AC2F30D0273
S214400FD0C0F88C2070470163704741637047426495
S214400FE0B1F1C05F3AD013D8B1F1006F25D0B1F15E
S214400FF0805F0AD1036F13430367436F416F0B4013
S21440100023EA02034367426070470029FBD17047DA
S214401010B1F1205F21D009D8B1F1005FF3D1036F61
S21440102013430367436F13434367ECE7B1F1405FF5
S21440103013D0B1F1605F10D0E5E710B4016F046FD4
S214401040D34321401C4619400167436F416F0B4014
S2144010502340436742605DF8044B7047036F016F5F
S2144010600B4023EA02030367436F13434367CAE711
S214401070416412F0010F0DD1016612F00A0F0BD039
S214401080016212F0020F09D112F0080F08D0C0F822
S214401090841005E04166F0E74162F2E7C0F8801050
S2144010A041610160704710B4019C41644CB90166CF
S2144010B04BB101654AB94163016101605DF8044B7B
S2144010C070474166F4E74165F4E70163F4E70000E2
S2144010D070B582B0054616461C46B1F1005F14D086
S2144010E00AD9B1F1405F24D0B1F1605F21D0B1F1AF
S2144010F0205F17D000201AE0B1F1805F05D0B1F133
S214401100C05F02D0B1F1006FF4D132462846114B91
S214401110984714F0010F02D12E66012007E06E6654
S214401120012004E01A4631460B4B9847012002B096
S21440113070BD04F001030093C4F38003B1F1605F17
S21440114014BF0022012231462846044CA047012005
S214401150EDE700BFDF0F400071104000A7104000D1
S214401160836B0B4214BF01200020704712F0100F13
S21440117012D0C0F8B01012F0200F07D0C0F8D4102C
S21440118012F0400F05D0C0F8C0107047C0F8D0101D
S214401190F6E7C0F8C4107047C0F8B4107047016452
S2144011A07047C06C7047806C704700002DE9F04176
S2144011B0044688460E4B9847054620460D4B9847B2
S2144011C0054013D00C4C04F1600603E0B4420DD049
S2144011D010345DB120684045F8D161682942F5D0A9
S2144011E0E3689847636825EA0305EFE7BDE8F081C2
S2144011F0A3114000A7114000F40B4020F8B5184C4E
S2144012002668062E2AD84FF0000C6446154F04E098
S2144012100134E4B2A446A64209D3A64625017D5928
S2144012208D42F5D107EB04156D689542F0D10D4D12
S2144012304FEA0E1E05EB0E0445F80E106260A360E2
S2144012400699E1600136664505D011461A46064BBA
S21440125098470020F8BD02490E60F6E70120F8BD29
S214401260640C4020F40B40206D11400008B50A2164
S2144012700148024B984708BD000E0E40AD11400095
S21440128008B50B210148024B984708BD00100E4098
S214401290AD11400008B50C210148024B984708BDE7
S2144012A000120E40AD11400008B510210148024B17
S2144012B0984708BD00140E40AD11400008B51121F6
S2144012C00148024B984708BD00160E40AD1140003D
S2144012D0032811D0042812D002280CBF4FF4807186
S2144012E00021084A136B23F440730B431363936E39
S2144012F013F0080FFBD070474FF44071F1E74FF4FE
S2144013000071EEE700060E40174A136B23F0700399
S21440131018431063936E13F0080F0AD14FF48053AE
S21440132011498A6E12F0080F03D1013BF9D1012012
S21440133070470D4A136B23F0030343F00203136315
S214401340936E13F0080F0AD14FF4805306498A6E05
S21440135012F0080F05D1013BF9D10120704700205B
S21440136070470020704700BF00060E40A0B90E48E8
S214401370036A090289B20D4A1A400D4B13431943BA
S21440138001620246936E13F0010FFBD0064A116AC3
S214401390084B0B431362704703490B6A064A1A40D0
S2144013A0064B13430B62704700060E40FCFFC8FF17
S2144013B00100370000003701FCFFC8FE020037017D
S2144013C0024B986E00F48030704700BF00060E4017
S2144013D04FF00052014B9A62704700BF00060E4025
S2144013E0024B986E00F00200704700BF00060E40A9
S2144013F03F281ED81F280CD8114B9A6901238340DA
S214401400934318D0012303FA00F00D4B18610020D7
S214401410704720380A4BD3F8082101238340934372
S2144014200BD0012303FA00F0054BC3F8000100205F
S214401430704701207047002070470020704700BF6B
S21440144000060E4070470000104A136F23F4C00396
S21440145043F480031367116A0D4B0B431362936E7C
S21440146013F0080FFBD04FF4FA7300BF013BFCD1DA
S214401470064A136A13F0080FFBD0044A136F23F48E
S214401480C00343F480031367704700BF00060E4056
S214401490040037002DE9F843431E042B00F2078171
S2144014A0DFE813F00500050015001500F600814A38
S2144014B0136923F00403136101227F4B1A70BFF3B4
S2144014C05F8F62B6BFF34F8F30BFBDE8F8830446E8
S2144014D003280CBF00204FF40010784B984772B694
S2144014E0BFF35F8F0022744B1A700122744B1A7040
S2144014F0744B1F6A1D6B744AD2F800809E6A734A0A
S2144015003A431A6205F00309B9F1010F40F28980A7
S21440151025F0030141F0010119631A46936E13F05A
S214401520080FFBD011F0700F08D021F07001654B0A
S21440153019631A46936E13F0080FFBD0644B984716
S214401540604A936E13F4003FFBD05E4A116A614BCB
S2144015500B4043F45C131362936E13F4803FFBD04E
S21440156028F47063584A1360042C5CD0524C012314
S2144015702370BFF35F8F62B6574B984772B6BFF380
S2144015805F8F0023237017F0020F55D04D4A136A21
S21440159052491940524B0B431362116A514B0B4050
S2144015A043F45C131362504B3340002B6ED046F02E
S2144015B00056444B9E620221B9F1020F04D1414AC3
S2144015C0936E13F0020FFBD03E4A136B23F070036A
S2144015D005F0700003431363936E13F0080FFBD0BF
S2144015E0394BC3F80080A3F5C0631D631A46936E5B
S2144015F013F0080FFBD0334A936E0B42FCD0002208
S2144016002F4B1A70394B1B681BB198470022374B3B
S2144016101A600122284B1A70BFF35F8F62B6BDE88E
S214401620F88329467EE7A2F5C062116A304B0B402C
S21440163043F45C13136299E717F0010FB3D0214BC4
S2144016401B6A13F0010F0BD11E490B6A294A1A4038
S214401650294B13430B620A46936E13F0010FFBD0DF
S214401660184B1B6A13F0807F08D1164A116A234B29
S2144016700B431362936E13F4803FFBD0114A116AFA
S214401680184B0B4043F45C1313628CE7002193E73E
S214401690084A136943F004031361194A194B1A6048
S2144016A00122054B1A70BFF35F8F62B630BFBDE8AC
S2144016B0F88300BF00ED00E01800402045144000CD
S2144016C0680C402000060E40000C0E400800370014
S2144016D0D1134000FFFFC8FE49144000FCFFC8FE7F
S2144016E00200370187FFC8FF0000FF076C0C402050
S2144016F0FEFFC8FFFCFFC8FF0100370000003701AF
S214401700040000A510180E40436913F0020F02D0E3
S214401710C1610020704701207047436913F0010FF4
S21440172003D083690B70002070470120704710B4C7
S2144017300B01934214D9C9004B0803EBC202B2FB1B
S214401740F1F2D3085C1E4FF6FE718C4201D901209F
S21440175017E0416841F4002141600CE0012010E0B0
S214401760590801EBC202B2FBF3F2D3085C1E4FF6F7
S214401770FE718C42F2D8120402F4E0221A4302624E
S21440178000205DF8044B7047084BC0F8E430002357
S21440179043604362836288230360242303604FF4DC
S2144017A0807303604FF40023036070470041535535
S2144017B070B505460C4616460F4B984700220F4B11
S2144017C01A60A4B13246216828460D4B9847024617
S2144017D078B96368A1680B4321690B43E1680B4302
S2144017E006490B6069680B436B60104670BD01226A
S2144017F0FBE70122F9E700BF89174000700C402044
S2144018002F17400040230360704710230360704743
S214401810436913F0020F04D0C1F30801C1610020F0
S214401820704701207047436913F0010F05D0836964
S214401830C3F308030B600020704701207047FEE7A3
S21440184000B583B0254B264A9A4210D0254B234AF2
S2144018509A420CD2013B9B1A23F0030304331344F1
S2144018601F4951F8040B42F8040B9A42F9D11E4B1B
S2144018701E4A9A420AD2013B9B1A23F003030433C2
S2144018801344002142F8041B9342FBD1184A194BDB
S21440189023F07F039360EFF31083B3FA83F35B097F
S2144018A0019372B6BFF35F8F0022134B1A700199F3
S2144018B0124A136843F470031360BFF34F8FBFF3AD
S2144018C06F8F29B101220C4B1A70BFF35F8F62B63F
S2144018D00B4B98470B4B9847FEE700BF0000402055
S2144018E054924000D00940207C0D4020D009402032
S2144018F000ED00E0000040001800402088ED00E0C9
S214401900492B40000D2640003B4B1B6B03F0030366
S214401910012B1DD083B1022B36D0374B1B6B03F007
S2144019207003702B5FD0344B1A6B3449C2F30212EB
S2144019300B68D3400B607047314B5B6913F0800FE8
S21440194014BF4FF400424FF4FA422C4B1A60E4E7BF
S214401950294B1B6A13F0807F03D02A4A274B1A6014
S214401960DBE7294A254B1A60234B1B6A03F07003BA
S214401970102B05D0202BD0D1224A204B1A60CCE722
S214401980224A1E4B1A60C8E71B4B1B6A13F0807F27
S21440199016D01C4A194B1A60174B1B6B03F00303F7
S2144019A0022BBAD1144A916A926A1448C1F30A418A
S2144019B0036801FB0333D2B2B3FBF2F30360ACE738
S2144019C0114A0E4B1A600C4B1B6A03F07003102B27
S2144019D005D0202BE0D10B4A084B1A60DCE70B4AB7
S2144019E0064B1A60D8E7054A13680949A1FB03135A
S2144019F05B081360704700BF00060E401C00402086
S214401A0010180E40001BB70000093D0000127A0077
S214401A10ABAAAAAA164B984213D9164B984215D988
S214401A20154B984216D9154B984217D9144B9842E5
S214401A3018D9144B984294BF134A144A144B1A6050
S214401A4070474FF08062124B1A607047114A104B35
S214401A501A607047104A0E4B1A6070470F4A0C4B7C
S214401A601A6070474FF00422094B1A60704700BF57
S214401A70BFF35E017FE7BD023FDB1C04FFCE7B0564
S214401A80BFC2DA067FB63908000500040006000427
S214401A90000C0E4000010004000200040003000495
S214401AA00A4B1B6853B1094B1B681A1808499142E8
S214401AB008DB1046054A106018467047054A034B37
S214401AC01A60F0E74FF0FF30704700BF740C4020BC
S214401AD0FCFF4520802F40204FF0FF3070474FF4EA
S214401AE000534B600020704701207047002070472D
S214401AF043684B609A688A609A685160996008614A
S214401B0003680133036070470369426881689160E7
S214401B108268416851605A68904205D0002202614E
S214401B20186801381860704782685A60F6E7000007
S214401B30064B19680868B0E8F04F80F30988BFF391
S214401B406F8F4FF0000080F311887047780C40206C
S214401B50704700BFEFF30980BFF36F8F154B1A68CD
S214401B601EF0100F08BF20ED108A20E9F04F1060DD
S214401B704DF8043D4FF0800072B680F31188BFF3F5
S214401B804F8FBFF36F8F62B600F0F0F84FF0000053
S214401B9080F3118808BC19680868B0E8F04F1EF05A
S214401BA0100F08BFB0EC108A80F30988BFF36F8F20
S214401BB0704700BF780C4020704700BF08B5EFF371
S214401BC011834FF0800272B682F31188BFF36F8F95
S214401BD0BFF34F8F62B6054B984718B14FF080520F
S214401BE0034B1A60002383F3118808BD211C400074
S214401BF004ED00E0084B1B681B683BB1064B1B68B6
S214401C00DB68DB685A68054B1A6070474FF0FF3256
S214401C10024B1A60704700BF7C0C4020F40C4020FA
S214401C202DE9F047424B1B68002B78D1414B1A6890
S214401C3001321A601E68D6B93F4B1B681B6853B109
S214401C404FF0800372B683F31188BFF36F8FBFF3F4
S214401C504F8F62B6FEE7384A1168384B18681060F6
S214401C601960374A136801331360364B9847364B32
S214401C701B689E4218D20024344B1B68DB6A03EB79
S214401C808303334A52F82330022B28BF0124314BBA
S214401C901B680BB9304B9847304B1B68002B0CBF6A
S214401CA020460120BDE8F0870024DFF88C90DFF85E
S214401CB0B8802B4F1FE04FF0FF32234B1A60DBE714
S214401CC0214A1360D8E705F11800C047E86A3A6829
S214401CD00123834013433B6000EB800051461C4B7E
S214401CE003EB80001F4B9847184B1B68EA6ADB6A79
S214401CF09A4228BF0124D9F800301B68002BDAD05E
S214401D00D9F80030DB68DD686B689E42D8D305F1B1
S214401D10040A5046C047AB6A002BD4D1D6E70D4ADA
S214401D201368013313600C4B98470024B4E700BF98
S214401D30EC0C4020FC0C40207C0C4020800C4020CA
S214401D40F80C4020F51B4000F40C4020780C402056
S214401D50840C4020E80C4020D9204000000D402054
S214401D60F00C4020F11A4000091B40002D4B1B6828
S214401D70002B2CD110B500222B4B1A602B4B1B6826
S214401D801B6B1A68B2F1A53F03D15A68B2F1A53F62
S214401D9021D0264B186819683431254B9847254B77
S214401DA01B68B3FA83F3DBB2C3F11F0303EB830173
S214401DB0214A52F82120BAB94FF0800372B683F315
S214401DC01188BFF36F8FBFF34F8F62B6FEE70122D5
S214401DD0154B1A6070479A68B2F1A53FD9D1DB68B7
S214401DE0B3F1A53FD5D1DAE7134A9900C81802EBFC
S214401DF0800044686468446019440246083294424D
S214401E0009D003EB83030C4A02EB83035B68DA6872
S214401E10064B1A6010BD6068074A02EB81025060AC
S214401E20EFE700BFEC0C4020000D4020780C40202F
S214401E30C1204000F00C4020840C402008B50348E8
S214401E40034B98470122034B1A7008BD388F400059
S214401E50992B4000040D40202DE9F0412DED028BDA
S214401E6082B0B0EE408A80460F46204C0021204685
S214401E701F4B98479FED1F7AC7EE087AFDEEE77A2C
S214401E80CDED017ABDF8041020461B4B984717F459
S214401E90803F16D1194B0822C3F88020C3F8802112
S214401EA0802183F803131A6017F4403F19D14FF48A
S214401EB040310E48124B984702B0BDEC028BBDE84D
S214401EC0F08120460F4B98470446084E0D4D30464D
S214401ED0A8478442FBD004EB080104480A4B9847C5
S214401EE0D8E739460148094B9847E5E730180E4091
S214401EF0ED04400000000047D904400000E100E047
S214401F002D05400041054000590540001905400098
S214401F10F0B583B005460C46002301932A4B984201
S214401F2013D02A4B984218D0294B98421DD0294BA3
S214401F309D4222D0284B9D4227D0284B9D422ED0F2
S214401F40274B9D4235D003B0F0BD1F46254E214657
S214401F503846B0470028FAD1E9E71F46214E2146C9
S214401F603846B0470028FAD1E4E71F461D4E2146C2
S214401F703846B0470028FAD1DFE71F46194E2146BB
S214401F803846B0470028FAD1DAE71E46164D01A972
S214401F903046A8470028FAD1019B2370D3E71E4657
S214401FA0114D01A93046A8470028FAD1019B23705D
S214401FB0C9E71E460C4D01A93046A8470028FAD16D
S214401FC0019B2370BFE700BF00080E40000A0E408A
S214401FD0001A0E40001C0E400040024000800240A6
S214401FE000C002401B1740002718400070B50C4642
S214401FF02A4B984213D02A4B984219D0294B9842E4
S2144020001FD0294B984225D0284B98422BD0284B9E
S214402010984231D0274B984237D0002070BD1E469C
S214402020254D21463046A8470028FAD1012070BDEC
S2144020301E46214D21463046A8470028FAD10120A9
S21440204070BD1E461C4D21463046A8470028FAD192
S214402050012070BD1E46184D21463046A847002830
S214402060FAD1012070BD1E46144D21463046A84781
S2144020700028FAD1012070BD1E46104D214630463C
S214402080A8470028FAD1012070BD1E460B4D2146B8
S2144020903046A8470028FAD1012070BD00080E40FF
S2144020A0000A0E40001A0E40001C0E40004002403F
S2144020B00080024000C0024009174000111840004E
S2144020C008B50A4601460248024B9847FEE700BF5D
S2144020D0688F4000992B4000704700002DE9F04380
S2144020E085B006460C461746984608461C4B984709
S2144020F01C4D009502AB03AA29464046DFF8809067
S214402100C847029A42F4804239463046164B9847B2
S214402110039AB5FBF2F2B2FBF8F239463046134B5F
S214402120984763B2002B13DB114A8021D1545B09D8
S21440213004F01F04012202FA04F40E4A42F8234037
S2144021401022394630460C4B984705B0BDE8F08320
S21440215004F00F01094A0A4480211176E7E700BFE0
S214402160F113400000A3E111E706400009074000D4
S21440217000E400E000E100E011074000FCEC00E075
S2144021802107400038B504460D46064B984720B90F
S21440219029462046044B984738BD29462046034BDF
S2144021A0984738BD61114000D70F4000DB0F400014
S2144021B000B583B002210648064B984701904FF47D
S2144021C080710548054B984703B05DF804FB00BF97
S2144021D000C000401907400000120E408521400014
S2144021E000B583B001210548054B98470190012171
S2144021F00448054B984703B05DF804FB00C0004018
S21440220019074000000E0E408521400010B50C48CE
S2144022100C4B9847044610F0010F03D114F0020F00
S21440222008D110BD4FF400310020B1EE000A064B35
S2144022309847F3E74FF080410448054B9847F0E74E
S21440224030180E4055054000591E400000120E4002
S2144022508521400082B070B582B005460C4606A97E
S21440226081E80C0002201D4B9847002128461C4B55
S2144022709847099B0093089B079A06992846194E4B
S214402280B0470C9B0B9A0A992846174EB04762B245
S214402290E4B204F01F0101238B405609134800EBBB
S2144022A08601C1F88030C1F88031002A0FDB0F4923
S2144022B01144802281F8002340F826300D992846A4
S2144022C00B4B984702B0BDE8704002B0704704F030
S2144022D00F04084A80211155EEE700BFF113400075
S2144022E0AD014000B90340002102400000E100E09B
S2144022F0C301400014ED00E038B51148114B984733
S21440230010F0020F14D10E4D042128460E4CA04763
S21440231002212846A04701212846A04708212846F2
S214402320A04710212846A04720212846A04738BD70
S2144023300648074B98470122064B1A70E3E700BF52
S21440234060180E40D1044000D5044000288F40005D
S214402350992B4000050D40202DE9F047B0F10008CC
S21440236030DD0F46CD17184BA1FB030103FB0511CB
S21440237041F22C72002341F22B740025001969416A
S214402380124CA04782460024114EDFF85090114D63
S2144023900AE03320A847042130460F4B98473320A5
S2144023A0A8470134A0450DD004213046C847002F29
S2144023B0EFD05046A84704213046074B9847504632
S2144023C0A847EEE7BDE8F08700A3E11139284000B2
S2144023D000100E4001004020D70F4000DB0F4000A9
S2144023E000B583B000210548054B9847019001226F
S2144023F0044B1A7003B05DF804FB00BF00C00040F9
S21440240019074000060D402070B586B0304B1A685C
S21440241001321A601B683C2B36D02E4B1B683C2B77
S2144024203FD02D4B1B68182B48D02B4B1A682B4D92
S214402430294604A82A4CA047264B1A68294602A8D3
S214402440A047234B1A6829466846A047254D2B4689
S2144024500022142104A8244CA047244E2B460022D8
S21440246028213046A0472B460022322102A8A0470A
S2144024702B46002246213046A0472B4600225021BC
S2144024806846A04706B070BD124A13680133136011
S21440249000220F4B1A60134B5A211548124CA04786
S2144024A0BBE70D4A1368013313600022094B1A60DC
S2144024B00C4B3C210E480C4CA047B2E70022064B82
S2144024C01A60084B1E210A48074CA047ADE700BFDC
S2144024D0480D4020500D40204C0D40205C8F400061
S2144024E0DD3440000C00402071094000648F4000FD
S2144024F0588F40002DE9F04383B00C20374EB0474C
S214402500DFF8008100240094234622464FF4807171
S2144025104046334FB84723464FF480724FF0405101
S2144025204046304DA8470A20B047DFF8DC9000947C
S2144025302346224601214846B847234601224FF00B
S21440254040514846A8470C20B047009423462246B0
S2144025504FF080414046B84723464FF080424FF008
S21440256040514046A8470B20B047A8F50078009455
S2144025702346224604214046B847234604224FF0CD
S21440258040514046A8471020B047174C09234FF00B
S21440259080524FF020512046A8473C224FF08051B1
S2144025A02046124B9847124B009340234FF08052E0
S2144025B0102120460F4DA8474FF0805120460E4B25
S2144025C0984720460D4B98470D4B4FF480321A6083
S2144025D0802283F8102303B0BDE8F083F113400057
S2144025E0A7104000D110400000140E40BD0F400020
S2144025F03D1E4000FD1140009F114000A3114000C9
S21440260000E100E000120E40000E0E4080B59AB089
S214402610644B9847644B9847644B9847644B98473D
S214402620644D654B1D60654A654B1A60654A664B4E
S2144026301A604FF4E1330D93C0230E934FF40063BA
S2144026400F930024109411940E20604B9847604AD4
S2144026500DA928465F4B984728465F4B9847284623
S2144026605E4B98475E4E3368214698685D4DA84756
S214402670336821465868A847336821469868A84773
S2144026804FF40042584B5A60584D052302221921F8
S2144026902846574FB84702212846564EB04704238F
S2144026A0012218212846B84701212846B047012371
S2144026B0224617212846B84721462846B0474FF4B9
S2144026C080311020B1EE000A4B4B984713AC4B4D6F
S2144026D00FCD0FC495E8070084E80700022605964C
S2144026E06C4615AD0FCD0FC42B68236013AB0CCBD7
S2144026F031464348434CA047434C414D434E40E04F
S21440270009AB08AA07A92846B0470DAB00930CAB07
S2144027100BAA0AA928463E4FB8470C9B00930123B4
S2144027200B9A194628463B4FB847099B272B0DD88E
S2144027301433029301210191089B00930B46079A9C
S2144027402846354FB847002323701DE0283B0293A8
S21440275001210191089B0B4400930B46079A28469B
S2144027602D4FB847EFE7C82103202C4B98472C48FD
S2144027702C4B984700222C4B1A7009E002202B4B1A
S21440278098472378002BBBD1274B1B78002BEAD1E8
S214402790274B1B78002BF1D0264B98470022244B22
S2144027A01A70EBE7290D4000250E4000F524400046
S2144027B0090A400000800240440D4020ED1F4000C2
S2144027C0400D4020111F40003C0D4020F1134000BA
S2144027D080D1F008B1174000051840000B184000A3
S2144027E0200040203D33400050180E4000C00040BE
S2144027F0DD20400001074000591E40000C8F40007D
S21440280060180E4055224000040D4020C70140008D
S2144028104503400071044000B10240005923400087
S2144028204C8F4000992B4000050D402095144000E9
S214402830060D40200924400053B94AB9002908BF74
S21440284000281CBF4FF0FF314FF0FF3000F07AB940
S214402850ADF1080C6DE904CE00F006F8DDF804E0B2
S214402860DDE9022304B070472DE9F0478C460D465B
S2144028700446089E002B51D18A4217466DD9B2FABB
S21440288082FEBEF1000F0BD0CEF1200C01FA0EF501
S21440289020FA0CFC02FA0EF74CEA050C00FA0EF48D
S2144028A04FEA174A250CBCFBFAF81FFA87F90AFBD1
S2144028B018CC45EA0C4508FB09F3AB420AD9ED199A
S2144028C008F1FF3280F02381AB4240F22081A8F12C
S2144028D002083D44ED1AA4B2B5FBFAF00AFB1055C7
S2144028E044EA054400FB09F9A14509D9E41900F179
S2144028F0FF3380F00A81A14540F2078102383C440C
S214402900A4EB090440EA08400021002E61D024FAD6
S2144029100EF4002334607360BDE8F0878B4207D91D
S214402920002E54D0002186E821000846BDE8F087F6
S214402930B3FA83F1002940F08E80AB4202D3824244
S21440294000F2FA80841A65EB03050120AC46002E9F
S2144029503FD086E81010BDE8F08712B90127B7FBD4
S214402960F2F7B7FA87FEBEF1000F34D1EB1B3A0CF4
S2144029701FFA87FC0121B3FBF2F8250C02FB183343
S21440298045EA03450CFB08F3AB4207D9ED1908F1BD
S214402990FF3002D2AB4200F2D1808046ED1AA3B29D
S2144029A0B5FBF2F002FB105543EA05440CFB00FC75
S2144029B0A44507D9E41900F1FF3302D2A44500F23A
S2144029C0B8801846A4EB0C0440EA08409DE7314620
S2144029D03046BDE8F087CEF1200405FA0EF307FA3C
S2144029E00EF720FA04F83A0C25FA04F448EA0308ED
S2144029F0B4FBF2F14FEA184502FB11441FFA87FC7C
S214402A0045EA044501FB0CF3AB4200FA0EF409D943
S214402A10ED1901F1FF3080F08A80AB4240F28780AA
S214402A2002393D44EB1A1FFA88F5B3FBF2F002FB7D
S214402A30103345EA034500FB0CF3AB4207D9ED19CA
S214402A4000F1FF386FD2AB426DD902383D44EB1AE5
S214402A5040EA01418FE7C1F1200722FA07F88B4090
S214402A6005FA01F448EA030320FA07FE4FEA134C3E
S214402A70FD404EEA040EB5FBFCF94FEA1E440CFB43
S214402A8019551FFA83F844EA054509FB08F4AC4299
S214402A9002FA01F200FA01FA08D9ED1809F1FF30FE
S214402AA043D2AC4241D9A9F102091D442D1B1FFA5D
S214402AB08EFEB5FBFCF00CFB10554EEA054400FBC1
S214402AC008F8A04507D9E41800F1FF3529D2A045FB
S214402AD027D902381C4440EA0940A4EB0804A0FB6E
S214402AE002894C45C6464D4615D312D056B1BAEB70
S214402AF00E0364EB050404FA07F7CB401F43CC40B3
S214402B00376074600021BDE8F0871846F8E69046C6
S214402B10E0E6C245EAD2B8EB020E69EB030501389F
S214402B20E4E72846D7E7404691E78146BEE70146B8
S214402B3078E702383C4445E7084608E7A8F102082B
S214402B403D442BE7704700BF70B50F4E0F4D761BC8
S214402B50B61018BF002405D0013455F8043B9847FA
S214402B60A642F9D10A4E0B4D761B06F05DFBB61019
S214402B7018BF002406D0013455F8043B9847A642B7
S214402B80F9D170BD70BD00BF349240003492400011
S214402B903C924000349240000FB400B5074983B0E1
S214402BA004AB086853F8042B8168019301F0A4FF36
S214402BB003B05DF804EB04B0704700BF200040202F
S214402BC0024B0146186800F003B800BF20004020C2
S214402BD02DE9F04F01F10B06162E83B0054640F264
S214402BE09E8036F0070600F1BD80B14200F2BA8002
S214402BF000F086FBB6F5FC7FC0F09382730A00F0C7
S214402C00B880042B00F27981B30903F1390003F14F
S214402C10380EC300BF4F3B44A3F108015C68A14295
S214402C2006D10CE0002A80F2AA80E468A14206D0D1
S214402C30636823F003039A1B0F2AF3DD70463C6952
S214402C40DFF8E4E2744500F0AB81636823F00303E9
S214402C509A1B0F2A00F39081002AC7F814E0C7F8A1
S214402C6010E080F29D80B3F5007F80F06181DB0844
S214402C7003F1010C99107A6857F83C80C4F8088034
S214402C8001238B4007EBCC0113430839E1607B609E
S214402C9047F83C40C8F80C408210012494409C42BF
S214402CA000F28B801C4206D120F0030064001C42D8
S214402CB000F10400FAD007EBC009CC468046DCF8A9
S214402CC00C309C4507D16DE1002A80F27B81DB68A1
S214402CD09C4500F06781596821F003018A1B0F2A42
S214402CE0F2DDD3F80CC0D3F8088000939C19284630
S214402CF046F0010642F001055E60C8F80CC0CCF80C
S214402D0008807C613C61C4F80CE0C4F808E065606B
S214402D105A5000F0FBFA009B03F108041EE010290D
S214402D2020D800F0EDFA102618230220794F3B44B5
S214402D30A3F108025C68944200F03D816368E16854
S214402D40A66823F00303234428465A68F16042F0FD
S214402D5001028E605A6000F0D9FA0834204603B06B
S214402D60BDE8F08F00240C2320462B6003B0BDE85E
S214402D70F08F40204FF400734FF03F0E4AE7234455
S214402D80E1685A68A66842F00102F16028468E6003
S214402D905A6000F0BBFA0834204603B0BDE8F08F16
S214402DA0234428465A6842F001025A6000F0AEFAC0
S214402DB00834204603B0BDE8F08FBC68636823F053
S214402DC00308B04504D3A8EB06030F2B00F3858019
S214402DD0DFF85891504BD9F800201B680132334435
S214402DE004EB080A00F0558103F580530F3323F4B3
S214402DF07F6B2BF00F0B5946284600F08DFA411C8E
S214402E00024600F0FC80824500F2F780434B19688A
S214402E105944196000F04D81D9F8000001301BBFBD
S214402E20A2EB0A0A5144C9F80020196012F00701C3
S214402E3000F01581C1F10800C1F580510244083107
S214402E4002EB0B09C9F30B09A1EB090949462846D1
S214402E500193009200F060FA431C9DE80C0000F0DD
S214402E604381801A484440F001001968BA604944DA
S214402E70BC425060196017D0B8F10F0F40F2FB808B
S214402E806068A8F10C0222F0070204EB020E00F084
S214402E9001004FF0050C10430F2A6060CEF804C0C6
S214402EA0CEF808C000F217811D4BBC681A689142E4
S214402EB088BF19601B4B1A689142626888BF1960C8
S214402EC022F003029642A2EB060301D80F2B04DC45
S214402ED0284600F01BFA002440E7A21943F00103FD
S214402EE046F0010666602846BA60536000F00EFA67
S214402EF00834204603B0BDE8F08F142B71D9542B0C
S214402F0000F2A380330B03F16F0003F16E0EC30093
S214402F1080E600BF50044020380D4020080D402079
S214402F20300D4020340D40205804402058084020A2
S214402F305A0A042A5BD9142A00F2AE8002F15C01D8
S214402F40C9005B3207EB010C7958ACF1080C8C4594
S214402F5000F088804A6822F00302934273D2896860
S214402F608C45F7D1DCF80C207B68E260C4F808C0DA
S214402F709460CCF80C408FE6A11946F0010C42F064
S214402F800106C4F804C0284679613961C1F80CE0EE
S214402F90C1F808E04E60E25000F0B8F90834DDE6CB
S214402FA07B6879E608F1010818F0030F0CF1080C6D
S214402FB07FF485AE2DE0DC68A34208BF02303FF4C4
S214402FC03EAEBBE619441C464A68DB6854F8086FB8
S214402FD042F001024A602846F3609E6000F096F98F
S214402FE0BCE603F15C0003F15B0EC30012E69A09EF
S214402FF002F13901C9003832A4E7BC4254D0BC685B
S214403000626822F003025DE759F80839994540F0B6
S214403010868010F0030F00F1FF30F5D17B6823EA7D
S21440302004037B6064009C423FF6C7AE002C3FF42E
S214403030C4AE1C4240467FF43EAE64001C4200F1E3
S2144030400400FAD037E68C468CE7B3F5AA7F15D84D
S214403050F30B03F1780003F1770EC300DAE54FF483
S2144030608051EDE67B689210012101FA02F213438B
S2144030707B60624679E70123536029E740F2545269
S214403080934222D8B30C03F17D0003F17C0EC300BB
S214403090C0E503F1100BAEE6542A29D81A0B02F10C
S2144030A06F01C9006E324DE7204B196859441960CC
S2144030B0B2E6CAF30B0000287FF4AEAE08EB0B0373
S2144030C0BA6843F001035360EEE67F204FF47E7308
S2144030D04FF07E0E9EE504F108012846009303F06B
S2144030E0E7FD009B1968DFE601204FF00009BCE6CB
S2144030F0B2F5AA7F05D8DA0B02F17801C90077321B
S21440310020E740F254518A4205D89A0C02F17D01DC
S214403110C9007C3216E74FF47E717E2212E77B6848
S21440312080E7F00806F1080300E600BF080D4020DF
S214403130844641EA000313F003036DD1403A41D37D
S21440314051F8043B40F8043B51F8043B40F8043B3C
S21440315051F8043B40F8043B51F8043B40F8043B2C
S21440316051F8043B40F8043B51F8043B40F8043B1C
S21440317051F8043B40F8043B51F8043B40F8043B0C
S21440318051F8043B40F8043B51F8043B40F8043BFC
S21440319051F8043B40F8043B51F8043B40F8043BEC
S2144031A051F8043B40F8043B51F8043B40F8043BDC
S2144031B051F8043B40F8043B51F8043B40F8043BCC
S2144031C0403ABDD2303211D351F8043B40F8043B6C
S2144031D051F8043B40F8043B51F8043B40F8043BAC
S2144031E051F8043B40F8043B103AEDD20C3205D37C
S2144031F051F8043B40F8043B043AF9D2043208D074
S214403200D2071CBF11F8013B00F8013B01D30B88E5
S21440321003806046704700BF082A13D38B078DD0C3
S21440322010F003038AD0C3F10403D21ADB071CBF95
S21440323011F8013B00F8013B80D331F8023B20F8FF
S214403240023B7BE7043AD9D3013A11F8013B00F838
S214403250013BF9D20B7803704B7843708B788370C0
S2144032606046704770B4860746D0541E002A41D048
S214403270CAB2034602E014F1FF343BD303F8012BF5
S2144032809D07F8D1032C2ED9CDB245EA05250F2C43
S21440329045EA054519D903F110022646103E0F2E81
S2144032A042F8105C42F80C5C42F8085C42F8045C59
S2144032B002F11002F2D8A4F1100222F00F0204F03C
S2144032C00F041032032C13440DD91E462246043AEE
S2144032D0032A46F8045BFAD8221F22F0030204327F
S2144032E0134404F003042CB1C9B21C4403F8011B78
S2144032F09C42FBD170BC704714460346C2E700BFF1
S214403300014803F07DBF00BF640D4020014803F034
S21440331079BF00BF640D402038B5074C00230546F2
S21440332008462360FEF7BCFB431C00D038BD23682C
S214403330002BFBD02B6038BD780D402000290CBFF9
S214403340022200224FF4806300F000B82DE9F043DB
S214403350614C256883B004460F4690461E4615B11C
S214403360AB6B002B64D0B8F1020F06D0B8F1010F5A
S21440337000F29F80002EC0F29C80636ED80734D542
S2144033802146284603F016FB216B41B104F1400369
S214403390994202D0284603F08BFC00232363B4F9FD
S2144033A00C300022A26162601A063AD423F44A63C3
S2144033B023F00303B8F1020FA3811DD001AB6A4688
S2144033C02146284603F020FFA3891843A081002EFB
S2144033D032D1009E3046FFF7F3FB074600286BD0FD
S2144033E0A38943F08003A38128E0A3899905C7D425
S2144033F0A06D03F005FFC3E70025616E002604F1CB
S214403400430243F002030120A660CE07A381226058
S2144034102261606101D498053ED5284603B0BDE8D8
S214403420F0832169284603F043FCB4F90C30BDE72D
S214403430284603F017FB96E7002FCBD0AB6B002B4C
S21440344033D0009BB4F90C2027609E421CBF42F448
S2144034500062A281B8F1010F04BF42F00102A281CE
S21440346092B212F00803276166610ED0D1071AD5D2
S214403470656E7642002315F00105A661A36009D06B
S2144034800025284603B0BDE8F083A360656E15F0BE
S2144034900105F5D19305C0D4A06D03F0B3FE2846D0
S2144034A003B0BDE8F083A660F0E7284603F0DAFAFA
S2144034B0C7E74FF0FF35B0E7DDF80090B14504D0E0
S2144034C04846FFF77DFB074620B9B4F90C304FF06D
S2144034D0FF3592E74E4683E7200040200EB4F0B515
S2144034E09CB021AB0F4953F8042B019305466FF06F
S2144034F00044086802954FF402774FF6FF7602A91B
S2144035000695ADF8147004940794ADF8166000F074
S21440351085F8029B00221A701CB0BDE8F04003B04C
S214403520704700BF20004020000000000000000060
S2144035300000000000000000000000000000000046
S21440354090F800F06DE9024520F007016FF0000C9E
S21440355010F0070491F820F040F049804FF0000446
S2144035606FF00700D1E9002391F840F000F1080021
S21440357082FA4CF2A4FA8CF283FA4CF3A2FA8CF359
S2144035804BBBD1E9022382FA4CF200F10800A4FAC0
S2144035908CF283FA4CF3A2FA8CF3E3B9D1E9042314
S2144035A082FA4CF200F10800A4FA8CF283FA4CF34B
S2144035B0A2FA8CF37BB9D1E9062301F1200182FA05
S2144035C04CF200F10800A4FA8CF283FA4CF3A2FA0B
S2144035D08CF3002BC6D0002A04BF04301A4612BA19
S2144035E0B2FA82F2FDE8024500EBD2007047D1E91C
S2144035F0002304F00305C4F100004FEAC50514F0AB
S214403600040F91F840F00CFA05F562EA05021CBF7B
S21440361063EA050362464FF00004A9E72DE9F04F40
S214403620C3B00C460B9192460F930C9003F0D6FD18
S21440363003681A931846FFF783FFA3891990190663
S21440364003D52369002B01F0038000230DF1C80940
S2144036501393159314932793269318931B930993C8
S214403660CDF89490C846169317939AF8003054466F
S214403670E3B1252B02D119E0252B03D014F8013FE6
S214403680002BF9D1A4EB0A0585B1269B279AC8F8EA
S21440369000A001332A44072BC8F8045027922693EB
S2144036A07FDC08F10808099B2B4409932378002BFC
S2144036B07FD000231A468DF8773019460D939B46E7
S2144036C04FF0FF3063780A9004F1010A0AF1010ACC
S2144036D0A3F12000582800F2C183DFE810F038023A
S2144036E0BF03BF034002BF03BF03BF03BF03BF0305
S2144036F0BF0345020302BF035D006B02BF038602A1
S2144037009D039D039D039D039D039D039D039D0374
S2144037109D03BF03BF03BF03BF03BF03BF03BF0376
S214403720BF03BF03BF0337035703BF035703BF039C
S214403730BF03BF03BF039803BF03BF03AD03BF036D
S214403740BF03BF03BF03BF035902BF03BF031E032C
S214403750BF03BF03BF03BF03BF03BF03BF03BF0314
S214403760BF03BF03C602DB025703570357038B0250
S214403770DB02BF03BF039002BF039D02CC01B4022D
S2144037800802BF03E101BF037E00BF03BF030D0273
S2144037900D980F9340420D904BF0040B9AF8003072
S2144037A094E725AA0B990C9804F05AFB40B9C846F2
S2144037B079E7279B23B10C980B9925AA04F050FB78
S2144037C00B9B9B8913F0400F099B18BF4FF0FF33AC
S2144037D00993099843B0BDE8F08F1BF0200F119372
S2144037E040F0DD810F9A1BF0100F134640F06E85B7
S2144037F01BF0400F00F06A85148804320025012330
S2144038000F9200278DF877700A994A1C00F065825F
S2144038102BF08002079254EA050240F064820029A9
S21440382040F03C84002B40F0D7841BF001030E93FD
S21440383000F0048642AE302306F8413D0A9B0E9ABD
S2144038409342B8BF134608930023129317B1089BC0
S21440385001330893079B13F00203109302D0089B92
S21440386002330893079B13F0840540F00E830D9BAC
S214403870089AA3EB020BBBF1000F40F30683BBF1A3
S214403880100F279C269A29DD43462146A846102736
S2144038900C9C0B9D06E0ABF1100BBBF1100F03F137
S2144038A0080318DD0132B74826921031072A2791BF
S2144038B083E88100EFDD25AA2946204604F0D0FAA9
S2144038C000287FF47DAFABF1100BBBF1100F2799AA
S2144038D0269A4B46E6DC45460C4698460132A94BAE
S2144038E026925C44072A279488E8080800F39884C0
S2144038F09DF8777008F1080877B1269B01330134AC
S2144039000DF177010122072B2794269388E80600BD
S21440391000F3DB8308F10808109B6BB1269B01334C
S21440392002341EA90222072B2794269388E8060015
S21440393000F3D68308F10808802D00F015830A9B13
S2144039400E9A9F1A002F36DD102F269B8E4D27DDB0
S21440395042462146B0464FF0100B2E460C9C0B9D1F
S21440396004E0103F102F02F1080215DD013310313C
S214403970072B2791269382E84008F2DD25AA2946A0
S214403980204604F06DFA00287FF41AAF103F102F3F
S2144039902799269B4A46E9DC35460C4646469046DD
S2144039A001333C44072B2794269388E8A00000F375
S2144039B0818308F10808079BDF0500F16882269B93
S2144039C00E99C8F8006001330C44072B2794C8F8BA
S2144039D00410269300F34D8308F10808079B5B0705
S2144039E03AD50D9B089A9D1A002D35DD102D269B45
S2144039F020DD10260C9FDDF82CB004E0103D102D85
S214403A0008F1080816DD01335E4A26931034072B6A
S214403A10279488E84400F1DD25AA5946384604F044
S214403A201FFA00287FF4CCAE103D102D279C269B15
S214403A30C846E8DC0133534A26932C44072B279488
S214403A4088E8240008DD25AA0B990C9804F008FAAB
S214403A5000287FF4B5AE279C099B0D9A08998A42A8
S214403A60ACBF9B185B180993002C40F00D830023D5
S214403A702693C846F9E511931BF0200340F0E381F6
S214403A801BF0100240F02E841BF0400300F02A8406
S214403A900F9913460A4604320C880F920025B0E66A
S214403AA00F9A1193166800248DF87740151D002E46
S214403AB000F0A7860A9A531C00F009862146304635
S214403AC003F036FC002800F0E186831B0E930A9430
S214403AD00F95CDF81CB023EAE373089312949DF833
S214403AE07770B3E69AF8003001222B21EEE54BF0D2
S214403AF0200B9AF80030E9E51193002A40F09587AC
S214403B00224B18931BF0200F40F011810F9A1BF0A8
S214403B10100F134640F0E1831BF0400F00F0DD83AA
S214403B20043314880F9300251BF0010F00F00C811E
S214403B3054EA050300F0088130239DF844208DF8B0
S214403B4078308DF879204BF0020B022359E69AF82C
S214403B50003000297FF4BAAD01222021B6E54BF0B3
S214403B60010B9AF80030B1E50F9C23680D93184678
S214403B700028234603F10403FFF60AAE0F939AF893
S214403B800030A3E5C88F4000D88F4000A88F400083
S214403B904BF0100B1BF0200F11933FF423AE0F9DFC
S214403BA0073525F0070303F10802D3E900450F92D5
S214403BB0012326E69AF800302A2B0AF1010400F089
S214403BC02787A3F130000928A24600F2AD860023DD
S214403BD01C461AF8013B04EB840400EB4404A3F1B2
S214403BE030000928F5D90A9472E54BF0800B9AF814
S214403BF000306BE54BF0400B9AF8003066E59AF8DB
S214403C0000306C2B03BF9AF801304BF0200B0AF1C2
S214403C10010A4BF0100B59E5002A40F011871BF0C3
S214403C20200F40F0F9841BF0100F40F0AC841BF0DE
S214403C30400F00F0A8840F9A136804320F92BDF824
S214403C4024201A8011E50F99B34B0C681893302244
S214403C50782304318DF8793011934BF0020B0F9195
S214403C6000258DF878200223CBE50F9911930A683A
S214403C708DF8A02000230A461F468DF87730043280
S214403C8001230893CDF81CB00A9712970F920E9313
S214403C9028AEDFE51193002A40F0EA861BF0200F9D
S214403CA05DD11BF0100F40F008831BF0400F00F072
S214403CB004830F99B1F900400431E51722462B469C
S214403CC00F91002A73F1000358DB0A999DF877702C
S214403CD04A1C4FF001037FF49BAD54EA050200F006
S214403CE0DF81CDF81CB0012B00F07B82022B40F028
S214403CF0068218984E46230904F00F0143EA0573DE
S214403D002A091C461546435C06F8013D54EA05035D
S214403D10F1D1A9EB06030E9390E51193002A40F0EB
S214403D20A3867E4B18931BF0200F3FF4EFAE0F9DFB
S214403D30073525F0070303F108021BF0010F0F9229
S214403D40D3E900457FF4F4AE02235AE51193002AE6
S214403D5040F086864BF0100B1BF0200FA1D00F9D35
S214403D60073525F00705D5E90023002A05F10801A7
S214403D701D4673F100030F911446A6DA2D276442C0
S214403D8065EB45058DF8777001233DE51193002AD4
S214403D9040F062860F9D073525F0070303F10802C1
S214403DA00F921A6815925B681493149B159D23F026
S214403DB00044284621464FF0FF32594B04F01EFF80
S214403DC0002840F04A83284621464FF0FF32544BA5
S214403DD004F0F6FE002840F0408315A80DC814995C
S214403DE004F0E4FE002840F030859DF877704D4E94
S214403DF04D4B2BF08000079011980322002108922B
S214403E000A914728D8BF1E460E9212911EE54BF0E7
S214403E10080B9AF8003059E4A3F1300000231C4602
S214403E201AF8013B04EB840400EB4404A3F1300091
S214403E300928F5D90D944BE44BF0100B11931BF069
S214403E4020033FF41DAE0F9D073525F0070303F111
S214403E500802D3E900450F920023D2E41193002ACA
S214403E6040F0E785119A002A3FF4A3AC00230121D5
S214403E701F4608918DF8A020CDF81CB08DF87730FD
S214403E800A9312930E9128AEE4E4279C34E5119BE6
S214403E90652B40F3A78015A80DC8149904F07CFE46
S214403EA0002800F05081269B204AC8F800200133A5
S214403EB001340122072B27942693C8F8042000F3E8
S214403EC06A8308F108081F9B139A279C934203DBDA
S214403ED0079BDD077FF582AD269B19991A9AC8F88D
S214403EE0002001330C44072BC8F80410279426936F
S214403EF000F39E8308F10808139B5E1E002E7FF792
S214403F006DAD102E269B0A4D40F3F58122461027B4
S214403F10DDF830B00B9C13E0A88F4000948F400033
S214403F20FFFFEF7F888F4000848F4000C48F4000A3
S214403F30D88F400008F10808103E102E40F3DA8172
S214403F4001331032072B2792269388E8A000F1DD34
S214403F5025AA2146584603F083FF00287FF430AC5C
S214403F60279A269BC846E7E70D9B089A9F1A002F7C
S214403F707FF7E5AC102F269BB64D27DD42462146FF
S214403F80B0464FF0100B2E460C9C0B9D04E0103FA5
S214403F90102F02F1080215DD01331031072B27914F
S214403FA0269382E84008F2DD25AA2946204603F0FB
S214403FB057FF00287FF404AC103F102F2799269B0C
S214403FC04A46E9DC35460C464646904601333C4474
S214403FD0072B2794269388E8A00000F3328208F146
S214403FE00808ACE4139B269F012B40F3FE81013763
S214403FF001340123072F27942697C8F80060C8F895
S214404000043000F3038208F10808199A1A9BC8F88E
S214404010003001371444072F27942697C8F8042009
S21440402000F3008208F1080815A80DC8149904F09A
S214404030B3FD139B002840F00181013B0137013658
S2144040401C44072F26972794C8F80060C8F8043009
S21440405000F3278108F108081B9AC8F804200137A6
S214404060144421AB072F27942697C8F800307FF7D3
S214404070B3AC25AA0B990C9803F0F2FE00287FF407
S2144040809FAB279CC846A9E425AA0B990C9803F039
S214404090E7FE00283FF4EBACFFF792BBDDF81CB020
S2144040A0012B00F03481022B25D1CDF81CB0002422
S2144040B000251EE625AA0B990C9803F0D1FE002891
S2144040C07FF47EAB279CC84675E425AA0B990C98CE
S2144040D003F0C6FE00287FF473AB279CC8461BE45B
S2144040E025AA0B990C9803F0BBFE00287FF468AB1A
S2144040F0279CC84620E4CDF81CB00024002549463D
S21440410000E03146E20842EA4572E80804F0070358
S21440411005461446303354EA050201F8013C01F1E5
S214404120FF36EED1079AD2077FF5F3AD302B3FF43A
S214404130F0AD0239302306F8013CA9EB01030E939B
S2144041400E46FFF77BBB1F99002940F32E82129B39
S214404150139A9342A8BF1346002B1F460DDD269B9D
S214404160C8F8006001333C44072B2794C8F8047015
S214404170269300F31F8308F10808129B002FA8BF60
S214404180DB1B002B1F4640F3D680102F269B314D5D
S21440419040F3ED8142462146B0464FF0100B2E4686
S2144041A00C9C0B9D04E00832103F102F40F3DB813F
S2144041B001331031072B2791269382E84008F2DD21
S2144041C025AA2946204603F04BFE00287FF4F8AA8D
S2144041D02799269B4A46E7E70A9B0E934E46FFF7EB
S2144041E02DBB002D08BF0A2CC0F08F804E462046BF
S2144041F029460A220023FEF71FFB303206F8012D1F
S2144042002046294600230A22FEF716FB04460D46A2
S21440421054EA0503EBD1A9EB06030E93FFF70EBB5A
S21440422025AA0B990C9803F01BFE00287FF4C8AA19
S2144042309DF87770279CC846FFF75EBB5E1E002E33
S2144042407FF70AAF102E034D22DD22464FF0100BAB
S2144042500C9C06E0D88F4000103E102E08F108084F
S21440426015DD01371032072F2792269788E8200859
S214404270F2DD25AA0B99204603F0F2FD00287FF4D4
S2144042809FAA103E102E279A269FC846E9DC144661
S21440429001373444072F2794269788E860007FF735
S2144042A0D9AE25AA0B990C9803F0DAFD00287FF4C6
S2144042B087AA279C269FC846CEE60F9A14681346C0
S2144042C00433E5170F9322462B46FAE404321C6863
S2144042D00F9201230025FFF794BA1C6804330F930E
S2144042E0002521E40F990A4604320C680F920025F7
S2144042F0FFF787BA144601333444072B2794269396
S21440430088E860007FF768ABB3E6DDF81CB0CDF810
S2144043101CB042AE3034012306F8414D0E93FFF7F1
S2144043208DBA25AA0B990C9803F09AFD00287FF4C5
S21440433047AA279CC8461F9A139B9A4244DB079B72
S214404340D90741D4139B12989A1A1D1A9542A8BFB2
S2144043501546002D0EDD2699C8F804500131064456
S2144043602C440729C8F800602794269100F33B8226
S21440437008F10808002DACBF561B1646002E7FF7E6
S2144043802DAB102E269BB04DB5DD22461027DDF80E
S21440439030B00B9C04E008F10808103E102EA9DD52
S2144043A001331032072B2792269388E8A000F2DDCF
S2144043B025AA2146584603F053FD00287FF400AA5C
S2144043C0279A269BC846E8E7269B19981A99C8F864
S2144043D0001001330444072B2794C8F804002693A2
S2144043E000F3F58108F10808ACE7079BDA073FF5CC
S2144043F0FEAD013701340123072F27942697C8F8CE
S2144044000060C8F804307FF725AE4AE725AA0B9926
S2144044100C9803F025FD00287FF4D2A9279C269F00
S214404420C846F2E525AA0B990C9803F019FD00281A
S2144044307FF4C6A9279C269FC846F5E54E46FFF75B
S214404440FDB925AA0B990C9803F00AFD00287FF4C5
S214404450B7A9279CC846FFF772BA159C2246204645
S214404460149C2346214604F0C9FB002840F086826F
S2144044700A9B0133119B23F020030E9300F0E28148
S214404480472B00F01E814BF480730793149B1F1E2E
S214404490159B0893BBBF3B4603F1004700232D23E3
S2144044A01093119B662B00F0BB81462B00F0DF80FB
S2144044B00E9B089A452B0CBF0A9B0A9D23A820A951
S2144044C008BF5D1C049003911FA802213B46029042
S2144044D0019500910C9801F0A3FA119B672B0646B4
S2144044E040F0E0811BF0010F00F046827419169AE6
S2144044F00898179B394604F04FFB002840F065812A
S214404500239BA34206D230215A1C23921970239B28
S2144045109C42F9D89B1B13930E9B472B00F0E980D7
S214404520119B652B40F3CD81119B662B1F9B1293ED
S21440453000F09E81139B129A1946914200F38A819D
S2144045401BF0010F40F0138222EAE27308936723C0
S2144045500E921193109B002B40F0C4800A939DF856
S2144045607770FFF773B935460C464646904601339A
S2144045703C44072B2794269388E8A0003FF7D1AE0B
S21440458008F10808D7E60F9A136804320F92099A82
S2144045901A60FFF76AB825AA0B990C9803F060FCDE
S2144045A000287FF40DA9C8468DE4269B274AC8F804
S2144045B00020013301340122072B27942693C8F8A4
S2144045C0042072DC08F1080829B9139B1BB9079B25
S2144045D0D8077FF503AA269B19981A9AC8F8002090
S2144045E0013302462244072B2792C8F8040026933C
S2144045F000F38D8108F108080029C0F265811399FF
S214404600C8F8006001338C18072B27942693C8F807
S21440461004107FF7E1A92CE50F9A09991368CD1786
S2144046200846043229460F92C3E90001FFF71DB839
S21440463025AA0B990C9803F013FC00287FF4C0A819
S214404640279CC84658E400BFD88F4000C48F40001F
S21440465040210C98FEF7BCFA0B9A106010610028B7
S21440466000F0F2810B9A40235361FEF7EEBF23A879
S21440467020A90A9C049003911FA803210290089A3F
S21440468001943B4600910C9801F0CAF9254606462F
S214404690119B462B06EB05047FF429AF3378302B6D
S2144046A000F078811F9D2C4421E725AA0B990C9891
S2144046B003F0D6FB00287FF483A81F99279CC846A2
S2144046C082E70A9B002B08BF01230A93DBE63046AD
S2144046D00A94FEF735FF0F950E90CDF81CB00346B2
S2144046E0FFF7F9B92D2700238DF877700A93FFF767
S2144046F0AEB81F9B12931A46033304DB0A9B194637
S2144047009142BFF617AF119B023B11939DF8443080
S2144047108DF88430129B013B002B1F93BDBF129B2C
S214404720C3F101032D222B22092B8DF8852040F35F
S21440473016810DF193042046AB4D00E0104685FBF4
S2144047400312D917C1EBA20101EB8102A3EB42028F
S2144047503032092900F8012C0B4600F1FF32EDDC1F
S21440476030330238D9B2844202F8011C40F26581E7
S2144047700DF18600134601E013F8011B00F8011BFB
S214404780A342F9D101339B1A0DF18602134421AAA4
S2144047909B1A139A1B93012A13440E9340F31981D4
S2144047A00E9B199A13440E9323EAE373089300234F
S2144047B01293CFE625AA0B990C9803F051FB0028DC
S2144047C07EF4FEAF279CC846D7E42346A2E625AA39
S2144047D00B990C9803F044FB00287EF4F1AF1F9A27
S2144047E0279CC846AEE525AA0B990C9803F038FBE3
S2144047F000287EF4E5AF1F9A139B279C9A1AC8465A
S214404800B8E50A9B1296062B28BF06230A9637461B
S21440481008930F95CDF81CB00E93744EFFF716B85C
S21440482023A820A90A9D049003911FA80321029063
S214404830089A01953B4600910C9801F0F1F806461F
S21440484044192BE706230A931DE62D278DF877702B
S214404850FFF7CDBA199A139B1344129A0E93002A67
S21440486040F3B08023EAE37308936723119371E61D
S214404870002B40F3C3800A9A002A40F099801BF030
S214404880010F40F0958008930E9363E60A9B0893C9
S2144048900E930A900F95CDF81CB012909DF8777045
S2144048A0FEF7D4BF119B472B7FF420AE1BF0010FC1
S2144048B07FF4EEAE239B9B1B13930E9B472B3FF43C
S2144048C018AF1F9B129321E74F421031484D2FDA05
S2144048D01024DDF830B004E008F10808103F102F2F
S2144048E026DD01331032072B27922693C8F8005056
S2144048F0C8F80440F0DD25AA0B99584603F0B0FAF4
S21440490000287EF45DAF279A269BC846E6E725AA90
S2144049100B990C9803F0A4FA00287EF451AF1F9927
S214404920279A269BC84667E600200A90FEF7D0BE28
S21440493001333A44072B88E8A0002792269308F1D3
S21440494008087FF75CAE25AA0B990C9803F088FA06
S21440495000287EF435AF279A269BC8464FE630336C
S21440496030228DF887308DF8862022AB0FE7129BD9
S214404970199A13440E9375E7239BCBE5149B1D4E63
S214404980002BB6BF2D279DF877708DF877701A4BA1
S214404990FFF72FBA169A0898179B394604F0FCF88A
S2144049A000287FF47FAEC5F101051F952C449EE597
S2144049B0129B199A13440A9A1A4422EAE2730E92F8
S2144049C00893C7E5129B0E9AC3F101031A44134697
S2144049D0D0E71BF0010312937FF4E2AE0E9B23EA6E
S2144049E0E3730893B6E500BF67666666BC8F400013
S2144049F0D88F4000908F40008C8F40000A9B13B9A0
S214404A001BF0010F02D0199B0133D4E701233AE78C
S214404A100F9D9AF80130286840EAE0700A902846D0
S214404A200430A2460F90FEF751BE8DF87710FFF780
S214404A3067B88DF87710FFF715BA0DF18603A6E62E
S214404A408DF87710FFF7EBB80C9A0C2313604FF0F5
S214404A50FF330993FEF7BDBE8DF87710FFF79AB97E
S214404A608DF87710FFF776B98DF87710FFF759B9BC
S214404A708DF87710FFF712B92DE9F84F4B6E9C046E
S214404A8093462FD59368126853B30E46074602F1F5
S214404A90080919E920045FEA9A0817D0043D002463
S214404AA001E0A04510D0324655F8041F384602F0C3
S214404AB07BF8431C04F10104F3D10023CBF8083003
S214404AC0CBF80430BDE8F88FDBF808302AF0030A4C
S214404AD0A3EB0A03CBF8083009F10809002BD8D11C
S214404AE00020EAE702F0CAF90023CBF80830CBF8FA
S214404AF00430BDE8F88F00BF2DE9F04FADB01D463D
S214404B008B4690460793069018B1836B002B00F0B7
S214404B10F380DBF86430BBF90C00DF0781B202D4C7
S214404B208E0540F1FC808C040AD4DBF8643040F4F7
S214404B30005123F40053ABF80C10CBF8643089B224
S214404B40080740F1B380DBF81030002B00F0AE8051
S214404B5001F01A030A2B00F0B58000230DF170090E
S214404B600B93119310930393CDF83C90CA46CDF81F
S214404B7010B098F800304446FBB1252B02D11CE01B
S214404B80252B03D014F8013F002BF9D1A4EB0805E0
S214404B909DB1109B119ACAF8008001332A44072B16
S214404BA0CAF80450119210937ADD002A40F0B0847F
S214404BB0039B10922B44CA4603932378002B00F0A5
S214404BC0E08300204FF000038DF8373004F10108F1
S214404BD062780546064603464FF0FF3408F1010862
S214404BE0A2F12001582900F2DE82DFE811F021020E
S214404BF0DC02DC022902DC02DC02DC02DC02DC0233
S214404C00DC0289029502DC02A200BD02DC029F01A2
S214404C10A401A401A401A401A401A401A401A40127
S214404C20A401DC02DC02DC02DC02DC02DC02DC0288
S214404C30DC02DC02DC02B201DC02DC02DC02DC026A
S214404C40DC02DC02DC02DC02DC02DC029701DC0275
S214404C50DC02DC02DC02DC029B01DC02DC025302EA
S214404C60DC02DC02DC02DC02DC02DC02DC02DC020F
S214404C70DC02DC025A021B02DC02DC02DC026E02B0
S214404C801B02DC02DC027302DC02F501820109022F
S214404C90D702DC029A02DC02A700DC02DC022E020B
S214404CA00AF1080A039B2B44039386E75946069865
S214404CB000F0ACFD18BBBBF80C1001F01A030A2B31
S214404CC07FF44BAFBBF90E30002BFFF646AFDBF858
S214404CD06430DB0705D48F0503D4DBF8580002F0B8
S214404CE091FA2B4642465946069800F04DFD0390F1
S214404CF003982DB0BDE8F08F01F0B4FE09E7DBF86D
S214404D006430D90704D4BBF80C309A0540F1AA8425
S214404D104FF0FF33039303982DB0BDE8F08FDBF8D8
S214404D20580002F06DFABBF90C0081B2FBE6764201
S214404D30079243F0040398F800204FE708969E0633
S214404D4000F150840799DD060A4600F1EF835806C5
S214404D5040F1EC830E8804310027012207914FF082
S214404D6000018DF837100025611C00F0168123F0F5
S214404D708001029156EA070140F01481002C40F071
S214404D805C83002A40F0B78313F00103059300F0DC
S214404D9057840DF1B00B30230BF8413D059BA342E1
S214404DA0B8BF234601930DB101330193029B13F024
S214404DB00203099302D0019B02330193029B13F036
S214404DC084030A9340F01782089B019A9D1A002D8F
S214404DD040F31182102D40F39084109B119AC44EDC
S214404DE0D6461027A2461946069C07E001F1020C5B
S214404DF00EF1080E0146103D102D11DD481C1032F4
S214404E00072811928EE8C0001090EFDD002A40F08F
S214404E10E481103D102D11464FF0010CCE46EDDCDE
S214404E2054466146F2462A4407291192CAF8006061
S214404E30CAF80450109100F3EC829DF837500AF1FE
S214404E40080A481C002D40F0DE81099B002B00F02C
S214404E50F88102320EA902230728119210908AE8A0
S214404E600A0040F3EA81002A40F08C830A9B802B9C
S214404E704FF001001146CA4640F0E781089B019D6D
S214404E805E1B002E40F3E181102E9A4D40F3508475
S214404E90D4461027A246069C07E001F1020E0CF10C
S214404EA0080C0146103E102E11DD481C1032072813
S214404EB011928CE8A0001090EFDD002A40F09D8211
S214404EC0103E102E4FF0010E1146CC46EDDC5446F7
S214404ED0E2463244BEF1070F11928AE86000CDF8F0
S214404EE040E000F369830AF1080A0EF101007146BA
S214404EF0ABE1089613F0200240F08C8313F01001CB
S214404F0040F01A8313F0400200F0168307980A46D2
S214404F100146043106880791002720E7089643F0AB
S214404F201003E7E7089643F0100308E743F08003D2
S214404F3098F8002052E6A2F13001002618F8012B1E
S214404F4006EB860601EB4606A2F130010929F5D9A3
S214404F5046E60896002840F0088443F010039E0674
S214404F6000F14C83DD0600F1F382580640F1F082F2
S214404F70079DB5F900602A46F71704323046394691
S214404F800792002871F10002C0F25D83611C9DF813
S214404F9037504FF001027FF4EAAE56EA070100F0C0
S214404FA04D820293012A00F08C82022A40F05C82F5
S214404FB00B98CB46330906F00F0143EA07733A09CC
S214404FC01E461746435C0BF8013D56EA0703F1D1EF
S214404FD0A9EB0B030593E1E6002840F0C083990651
S214404FE000F16783DA0600F1F1805B0640F1EE805F
S214404FF0079A136804320792BDF80C201A80B8E569
S21440500007983D4A08960B9206687822302104306D
S2144050108DF8392043F00203079000278DF83810AA
S21440502002229CE60896002899D08DF8375096E7DD
S21440503098F80020002D7FF4D1AD01202025CDE545
S21440504043F0010398F80020C8E50896002840F091
S214405050938329490B919F0600F1E8820798DE0664
S214405060014600F170825D0640F16D82043106888B
S21440507007910027D80740F1228256EA070100F040
S2144050801E8230218DF8392043F002038DF8381007
S214405090022264E60896002840F06B8317490B917D
S2144050A0D9E7079908960A688DF848204FF000001F
S2144050B00A468DF837000432012001900792059089
S2144050C00DF1480B0293002470E643F0400398F835
S2144050D0002083E598F800206C2A03BF98F801204A
S2144050E043F0200308F1010843F0100376E500BFC3
S2144050F0E88F4000F88F4000A88F4000948F400013
S21440510007990E680A46002E02F10402FFF60FAE1B
S214405110079298F8002061E598F8002001202B259A
S2144051205CE507990896D1F800B04FF000028DF87C
S21440513037200E1DBBF1000F00F0E582671C00F023
S214405140C482224600215846019302F0F1F8019BA2
S214405150002800F0E582A0EB0B020592079602932A
S2144051609DF83750002419E698F800202A2A08F1BE
S214405170010700F0E982A2F130010929B8464FF054
S21440518000043FF62DAD18F8012B04EB840401EB28
S2144051904404A2F130010929F5D921E543F0200362
S2144051A098F800201AE50896002840F0DB82002A8E
S2144051B000F0E78001218DF848204FF00002019171
S2144051C08DF8372005910DF1480B7BE7079A136859
S2144051D004320792039A1A60CBE40FAA0499204639
S2144051E0FFF74AFC002840F039811099119A01F1E6
S2144051F0010CCE46FFE51099119A481C9DF8375091
S214405200002D3FF422AE01320DF13705012107286B
S21440521011921090CAF80050CAF8041040F3088162
S214405220002A40F0BC81099B002B3FF41FAE0EAB1A
S214405230022208461C931D92CA4601460AF1080AF5
S21440524001300A9B802B3FF419AE059BE41A002CD4
S2144052502EDD102CB34D1EDDD6461026069FDDF8FB
S21440526010A006E0881C0EF1080E1946103C102CC3
S21440527010DD4B1C1032072B11928EE86000109305
S214405280F0DD002A65D1103C102C4FF0010011468D
S214405290CE46EEDCF246224407281192CAF8005069
S2144052A0CAF80440109000F385800AF1080A0130DD
S2144052B00599CAF800B00A4407281192CAF80410A3
S2144052C0109040F38280002A40F01881029B109292
S2144052D0580735D5089B01995C1A002C40F3E780A7
S2144052E0CA46102C40F3188210998F4E069FDDF860
S2144052F010B0102506E0881C0AF1080A1946103C32
S214405300102C11DD4B1C1032072B1192CAF800608E
S214405310CAF804501093EEDD42BB103C102C4FF000
S21440532001001146CA46EDDC224407281192CAF80D
S2144053300060CAF80440109051DD002A40F09B817E
S214405340039B089A01998A42ACBF9B185B1803934B
S2144053504EE00FAA51463846FFF78EFB002840F035
S2144053603F811099119A481CCE467FE70FAA5946AE
S2144053703846FFF781FB60B91099119A481CCA4617
S214405380BDE7119BDDF810B0002B40F0D481002320
S2144053901093DBF8643013F0010FBBF80C3002D1E9
S2144053A09A0540F1DE805B063FF5B2AC03982DB01F
S2144053B0BDE8F08F002A40F00681059A1D92012331
S2144053C01192CDF870B01093CA460AF1080A029BB3
S2144053D0590704D5089B01995C1A002C81DC039B75
S2144053E0089901988142ACBF5B181B18039372BBA7
S2144053F000231093CA46FFF7BCBB0FAA0499204669
S214405400FFF73AFB50BB1099119A01F1010ECC46BA
S21440541048E5002A40F040819DF83710002900F00A
S2144054201B8101220DF1370110461D921C91CA4680
S21440543001460AF1080A013007E5029B012A00F0FE
S2144054409880022A0DD1029300260027B0E50FAAC5
S21440545004990698FFF710FB0028C9D0DDF810B075
S21440546097E7029300260027494600E05946F2088F
S21440547042EA4772F80806F00703074616463033F6
S21440548056EA070201F8013C01F1FF3BEED1029AD1
S214405490D6077FF59DAD302B3FF49AAD02393023C9
S2144054A00BF8013CA9EB010305938B4676E4039B7E
S2144054B0089A8A42ACBF9B185B18039398E702226F
S2144054C04DE4002F08BF0A2E52D3CB46304639460D
S2144054D00A220023FDF7B0F930320BF8012D304692
S2144054E0394600230A22FDF7A7F906460F4656EA34
S2144054F00703EBD16CE50594CB464FE40FAA04991D
S2144055000698FFF7B9FA0028A8D1119ACA465EE76E
S2144055100FAA04990698FFF7AFFA00289ED1CA460C
S214405520FFF7C0BBF88F4000E88F40000431166894
S21440553007910122002712E40798014604310668C5
S214405540079100270BE40E6804310791002791E588
S21440555007990E680A46F7170432079230463946CE
S2144055600FE5DBF8580001F04DFEBBF80C301AE7AB
S214405570029B02930DF1B00B303601230BF8416DC0
S21440558005930BE40FAA04990698FFF775FA0028CE
S2144055907FF464AF1099119A481CCA4651E60FAA88
S2144055A004990698FFF768FA00287FF457AF1099D9
S2144055B0119A481CCA4648E4002A40F091800120CF
S2144055C01146CA4641E60FAA04990698FFF754FAD0
S2144055D000287FF443AF1098119A0130CA4667E618
S2144055E0D346D6E6079E073626F0070202F10801A4
S2144055F0D2E9006707910122FFF7B1BB079E073645
S21440560026F00706D6E9000106F10802079206468C
S2144056100F46B6E4079E073626F0070202F1080159
S214405620D2E9006707910022FFF799BB079E07362D
S21440563026F0070101F108000790D1E9006719E557
S214405640CB46FFF7ABBB2D25764267EB47078DF879
S21440565037500122FFF788BB099BB3B9114601209A
S214405660CA46F2E5DBF8580001F0CCFD4FF0FF33B8
S2144056700393FFF750BB0FAA04990698FFF7FCF96F
S21440568000287FF4EBAE119AA9E60EAB02221C93DB
S2144056901D920120CA46D0E50FAA04990698FFF746
S2144056A0EBF900287FF4DAAE1099119A481CCA46E6
S2144056B0A4E5079A03991368CD170846043229468D
S2144056C00792C3E90001FFF754BA5846079602937B
S2144056D0FDF736FF002405909DF83750FFF75EBB78
S2144056E00FAA04990698FFF7C7F900287FF4B6AECC
S2144056F01099119A481CCA46A7E51099119A204E4F
S2144057000131FFF790BB062C28BF06240594079668
S2144057100194DFF870B0D5E41098194E013003E6D6
S21440572005949DF83750079602930446FFF736BB1C
S2144057308646FFF7CEBB06980FAA5946FFF79CF958
S21440574000283FF424AE24E6079998F801200C6818
S214405750043144EAE474B8460791FFF73FBA8DF83F
S21440576037503CE48DF8375021E58DF83750FFF739
S214405770F4BB8DF8375091E48DF8375069E400BF9C
S214405780E88F4000BC8F40002DE9F0410C46ADF557
S2144057908D6D8989666EE589199621F00201064667
S2144057A0E069ADF80C1017464FF48061626AADF8B8
S2144057B00E5098461AAD0023079016A809920693F5
S2144057C0009504950291059101F016FD43463A4630
S2144057D069463046FFF790F9051E07DB30466946B6
S2144057E001F0E8F8002818BF4FF0FF35BDF80C3040
S2144057F05B0603D5A38943F04003A381169801F0C6
S214405800FDFC28460DF58D6DBDE8F08138B5304B72
S2144058101B6805460C4613B19A6B002A38D0B4F97B
S2144058200C2093B218070CD52069A8B113F00102DA
S2144058301ED0636900225B42A361A260F0B10020E3
S21440584038BDD9063CD5580726D4206942F008030F
S214405850A3819BB20028E9D103F42072B2F5007F01
S214405860E4D02846214601F0FDFCA3892069DDE707
S214405870990758BF6269A2600028E0D1B4F90C309D
S2144058801A06DDD543F04003A3814FF0FF3038BD04
S214405890184601F0E7F8C2E7216B51B104F1400326
S2144058A0994204D0284601F003FAB4F90C200023AC
S2144058B0236300232069636022F024022060C5E74A
